{
  "contractName": "CoinFlip",
  "abi": [
    {
      "anonymous": false,
      "inputs": [
        {
          "indexed": false,
          "internalType": "address",
          "name": "gambler",
          "type": "address"
        },
        {
          "indexed": false,
          "internalType": "uint256",
          "name": "betAmount",
          "type": "uint256"
        },
        {
          "indexed": false,
          "internalType": "bool",
          "name": "result",
          "type": "bool"
        }
      ],
      "name": "betResult",
      "type": "event"
    },
    {
      "anonymous": false,
      "inputs": [
        {
          "indexed": false,
          "internalType": "address",
          "name": "owner",
          "type": "address"
        },
        {
          "indexed": false,
          "internalType": "uint256",
          "name": "funding",
          "type": "uint256"
        }
      ],
      "name": "funded",
      "type": "event"
    },
    {
      "constant": true,
      "inputs": [],
      "name": "balance",
      "outputs": [
        {
          "internalType": "uint256",
          "name": "",
          "type": "uint256"
        }
      ],
      "payable": false,
      "stateMutability": "view",
      "type": "function"
    },
    {
      "constant": true,
      "inputs": [],
      "name": "owner",
      "outputs": [
        {
          "internalType": "address",
          "name": "",
          "type": "address"
        }
      ],
      "payable": false,
      "stateMutability": "view",
      "type": "function"
    },
    {
      "constant": false,
      "inputs": [
        {
          "internalType": "uint256",
          "name": "betAmount",
          "type": "uint256"
        }
      ],
      "name": "placeBet",
      "outputs": [
        {
          "internalType": "bool",
          "name": "",
          "type": "bool"
        }
      ],
      "payable": true,
      "stateMutability": "payable",
      "type": "function"
    },
    {
      "constant": false,
      "inputs": [],
      "name": "withdrawlAll",
      "outputs": [
        {
          "internalType": "uint256",
          "name": "",
          "type": "uint256"
        }
      ],
      "payable": false,
      "stateMutability": "nonpayable",
      "type": "function"
    },
    {
      "constant": true,
      "inputs": [],
      "name": "getBalance",
      "outputs": [
        {
          "internalType": "uint256",
          "name": "",
          "type": "uint256"
        }
      ],
      "payable": false,
      "stateMutability": "view",
      "type": "function"
    },
    {
      "constant": false,
      "inputs": [],
      "name": "fundContract",
      "outputs": [
        {
          "internalType": "uint256",
          "name": "",
          "type": "uint256"
        }
      ],
      "payable": true,
      "stateMutability": "payable",
      "type": "function"
    }
  ],
  "bytecode": "0x6080604052336000806101000a81548173ffffffffffffffffffffffffffffffffffffffff021916908373ffffffffffffffffffffffffffffffffffffffff1602179055506105db806100536000396000f3fe6080604052600436106100555760003560e01c806310fe7c481461005a57806312065fe0146100a05780633ba94981146100cb5780638da5cb5b146100f6578063b69ef8a81461014d578063bd097e2114610178575b600080fd5b6100866004803603602081101561007057600080fd5b8101908080359060200190929190505050610196565b604051808215151515815260200191505060405180910390f35b3480156100ac57600080fd5b506100b561033f565b6040518082815260200191505060405180910390f35b3480156100d757600080fd5b506100e06103a2565b6040518082815260200191505060405180910390f35b34801561010257600080fd5b5061010b61045a565b604051808273ffffffffffffffffffffffffffffffffffffffff1673ffffffffffffffffffffffffffffffffffffffff16815260200191505060405180910390f35b34801561015957600080fd5b5061016261047f565b6040518082815260200191505060405180910390f35b610180610485565b6040518082815260200191505060405180910390f35b6000662386f26fc10000803410156101ad57600080fd5b343073ffffffffffffffffffffffffffffffffffffffff1631101561021d576040517f08c379a000000000000000000000000000000000000000000000000000000000815260040180806020018281038252602e815260200180610579602e913960400191505060405180910390fd5b600060016002428161022b57fe5b06141561024b5734600160008282540192505081905550600090506102be565b60006002428161025757fe5b0614156102bd57346001600082825403925050819055503373ffffffffffffffffffffffffffffffffffffffff166108fc600234029081150290604051600060405180830381858888f193505050501580156102b7573d6000803e3d6000fd5b50600190505b5b7f0225d8feb385242f442c203c6050dada47778ecdc263014b186cf756575b6fe8338583604051808473ffffffffffffffffffffffffffffffffffffffff1673ffffffffffffffffffffffffffffffffffffffff16815260200183815260200182151515158152602001935050505060405180910390a18092505050919050565b60008060009054906101000a900473ffffffffffffffffffffffffffffffffffffffff1673ffffffffffffffffffffffffffffffffffffffff163373ffffffffffffffffffffffffffffffffffffffff161461039a57600080fd5b600154905090565b60008060009054906101000a900473ffffffffffffffffffffffffffffffffffffffff1673ffffffffffffffffffffffffffffffffffffffff163373ffffffffffffffffffffffffffffffffffffffff16146103fd57600080fd5b6000600154905060006001819055503373ffffffffffffffffffffffffffffffffffffffff166108fc829081150290604051600060405180830381858888f19350505050158015610452573d6000803e3d6000fd5b508091505090565b6000809054906101000a900473ffffffffffffffffffffffffffffffffffffffff1681565b60015481565b60008060009054906101000a900473ffffffffffffffffffffffffffffffffffffffff1673ffffffffffffffffffffffffffffffffffffffff163373ffffffffffffffffffffffffffffffffffffffff16146104e057600080fd5b674563918244f40000803410156104f657600080fd5b346001600082825401925050819055507fed7d0ddcc17abdb3935a0a23cd93e91b449dfeac7fd0def9f481ed5b37e18c4d3334604051808373ffffffffffffffffffffffffffffffffffffffff1673ffffffffffffffffffffffffffffffffffffffff1681526020018281526020019250505060405180910390a1349150509056fe54686520636f6e747261637420646f65736e7420686176652061206869676820656e6f7568672062616c616e6365a265627a7a723158206d012c4a76ae56c4ef8115e94962d3b1b8fcb76bfa67de4011d0148401b283c564736f6c634300050c0032",
  "source": "pragma solidity 0.5.12;\r\n\r\nimport \"./Ownable.sol\";\r\n\r\ncontract CoinFlip is Ownable{\r\n\r\n    uint public balance;\r\n\r\n    event betResult(address gambler, uint betAmount, bool result); \r\n    event funded(address owner, uint funding);\r\n\r\n    modifier costs(uint cost){\r\n        require(msg.value >= cost);\r\n        _;\r\n    }\r\n\r\n    function placeBet(uint betAmount) public payable costs(0.01 ether)returns(bool){\r\n            require(address(this).balance >= msg.value, \"The contract doesnt have a high enouhg balance\");\r\n            bool result;\r\n\r\n            if (now %2 == 1){\r\n                balance += msg.value;\r\n                result = false;\r\n\r\n            }\r\n            else if(now %2 == 0){\r\n                balance -= msg.value;\r\n                msg.sender.transfer(msg.value * 2);\r\n                result = true;\r\n            }\r\n            emit betResult(msg.sender, betAmount, result );\r\n            return result;\r\n    }\r\n\r\n    function withdrawlAll() public onlyOwner returns(uint) {\r\n        uint toTransfer = balance;\r\n        balance = 0;\r\n        msg.sender.transfer(toTransfer);\r\n        return toTransfer;\r\n    }\r\n\r\n    function getBalance() public view onlyOwner returns(uint){\r\n        return balance;\r\n    }\r\n\r\n    function fundContract() public payable onlyOwner costs(5 ether) returns(uint){\r\n        balance += msg.value;\r\n        emit funded(msg.sender, msg.value);\r\n        return msg.value;\r\n    }\r\n\r\n\r\n\r\n}\r\n",
  "sourcePath": "C:\\Users\\Nathan\\Desktop\\coinFlip\\coin\\contracts\\CoinFlip.sol",
  "compiler": {
    "name": "solc",
    "version": "0.5.12+commit.7709ece9.Emscripten.clang"
  },
  "schemaVersion": "3.0.23",
  "updatedAt": "2020-10-27T01:24:09.966Z",
  "networkType": "ethereum",
  "devdoc": {
    "methods": {}
  },
  "userdoc": {
    "methods": {}
  }
}